:020000040800F2
:1000000000C0002071250008A10B0008A30B000808
:10001000A50B0008A70B0008A90B000800000000B2
:10002000000000000000000000000000AB0B000812
:10003000AD0B000800000000AF0B0008B10B00087A
:10004000B9250008B9250008B9250008B925000818
:10005000B9250008B9250008B9250008B925000808
:10006000B9250008B9250008B9250008B9250008F8
:10007000B9250008B9250008B9250008B9250008E8
:10008000B9250008B9250008B9250008B9250008D8
:10009000B9250008B9250008B9250008B9250008C8
:1000A000B9250008B9250008B9250008B9250008B8
:1000B000B9250008B9250008B9250008B9250008A8
:1000C000B9250008B9250008B9250008B925000898
:1000D000B9250008B9250008B9250008B925000888
:1000E000B9250008B9250008B9250008B925000878
:1000F000B9250008B9250008B9250008B925000868
:10010000B9250008B9250008B9250008B925000857
:10011000B9250008B9250008B9250008B925000847
:10012000B9250008B9250008B9250008B925000837
:1001300000000000000000000000000000000000BF
:1001400000000000000000000000000000000000AF
:10015000000000000000000000000000000000009F
:10016000000000000000000000000000000000008F
:10017000000000000000000000000000000000007F
:10018000000000000000000000000000000000006F
:10019000000000000000000000000000000000005F
:1001A000000000000000000000000000000000004F
:1001B000000000000000000000000000000000003F
:1001C000000000000000000000000000000000002F
:1001D000000000000000000000000000000000001F
:0401E0005FF8E0F1F3
:1001E40010B5054C237833B9044B13B10448AFF36D
:1001F40000800123237010BD1C00002000000000BB
:100204001426000808B5034B1BB103490348AFF398
:10021400008008BD00000000200000201426000813
:1002240081F0004102E000BF83F0004330B54FEAA3
:1002340041044FEA430594EA050F08BF90EA020F10
:100244001FBF54EA000C55EA020C7FEA645C7FEAA3
:10025400655C00F0E2804FEA5454D4EB5555B8BFC6
:100264006D420CDD2C4480EA020281EA030382EA37
:10027400000083EA010180EA020281EA0303362DC9
:1002840088BF30BD11F0004F4FEA01314FF4801C9C
:100294004CEA113102D0404261EB410113F0004FAE
:1002A4004FEA03334CEA133302D0524263EB430365
:1002B40094EA050F00F0A780A4F10104D5F1200E03
:1002C4000DDB02FA0EFC22FA05F2801841F100015E
:1002D40003FA0EF2801843FA05F359410EE0A5F132
:1002E40020050EF1200E012A03FA0EFC28BF4CF063
:1002F400020C43FA05F3C01851EBE37101F0004519
:1003040007D54FF0000EDCF1000C7EEB00006EEB25
:100314000101B1F5801F1BD3B1F5001F0CD34908AF
:100324005FEA30004FEA3C0C04F101044FEA445206
:1003340012F5800F80F09A80BCF1004F08BF5FEA8D
:10034400500C50F1000041EB045141EA050130BD6D
:100354005FEA4C0C404141EB0101013C28BFB1F57F
:10036400801FE9D291F0000F04BF01460020B1FACA
:1003740081F308BF2033A3F10B03B3F120020CDA9D
:100384000C3208DD02F1140CC2F10C0201FA0CF07B
:1003940021FA02F10CE002F11402D8BFC2F1200CE0
:1003A40001FA02F120FA0CFCDCBF41EA0C01904096
:1003B400E41AA2BF01EB0451294330BD6FEA0404DF
:1003C4001F3C1CDA0C340EDC04F11404C4F12002CA
:1003D40020FA04F001FA02F340EA030021FA04F3DC
:1003E40045EA030130BDC4F10C04C4F1200220FA33
:1003F40002F001FA04F340EA0300294630BD21FA71
:1004040004F0294630BD94F0000F83F4801306BF36
:1004140081F480110134013D4EE77FEA645C18BF2A
:100424007FEA655C29D094EA050F08BF90EA020FC1
:1004340005D054EA000C04BF1946104630BD91EAB9
:10044400030F1EBF0021002030BD5FEA545C05D1BC
:100454004000494128BF41F0004130BD14F58004FB
:100464003CBF01F5801130BD01F0004545F0FE416F
:1004740041F470014FF0000030BD7FEA645C1ABFA4
:10048400194610467FEA655C1CBF0B46024650EADB
:10049400013406BF52EA033591EA030F41F4002107
:1004A40030BD00BF90F0000F04BF0021704730B58D
:1004B4004FF4806404F132044FF000054FF0000162
:1004C40050E700BF90F0000F04BF0021704730B523
:1004D4004FF4806404F1320410F0004548BF4042F8
:1004E4004FF000013EE700BF42004FEAE2014FEA4D
:1004F40031014FEA02701FBF12F07F4393F07F4F28
:1005040081F06051704732F07F4208BF704793F02A
:100514007F4F04BF41F40021704730B54FF460743D
:1005240001F0004521F000411CE700BF50EA010240
:1005340008BF704730B54FF000050AE050EA0102E9
:1005440008BF704730B511F0004502D5404261EB59
:1005540041014FF4806404F132045FEA915C3FF49A
:10056400D8AE4FF003025FEADC0C18BF03325FEA37
:10057400DC0C18BF033202EBDC02C2F1200300FAE8
:1005840003FC20FA02F001FA03FE40EA0E0021FA0D
:1005940002F11444BDE600BF70B54FF0FF0C4CF4FB
:1005A400E06C1CEA11541DBF1CEA135594EA0C0FAD
:1005B40095EA0C0F00F0DEF82C4481EA030621EAE8
:1005C4004C5123EA4C5350EA013518BF52EA033523
:1005D40041F4801143F4801338D0A0FB02CE4FF0D5
:1005E4000005E1FB02E506F00042E0FB03E54FF005
:1005F4000006E1FB03569CF0000F18BF4EF0010EFD
:10060400A4F1FF04B6F5007F64F5407404D25FEAF8
:100614004E0E6D4146EB060642EAC62141EA5551AB
:100624004FEAC52040EA5E504FEACE2EB4F1FD0CED
:1006340088BFBCF5E06F1ED8BEF1004F08BF5FEA6B
:10064400500E50F1000041EB045170BD06F000461D
:1006540046EA010140EA020081EA0301B4EB5C04CA
:10066400C2BFD4EB0C0541EA045170BD41F48011C2
:100674004FF0000E013C00F3AB8014F1360FDEBFE7
:10068400002001F0004170BDC4F10004203C35DAC3
:100694000C341BDC04F11404C4F1200500FA05F346
:1006A40020FA04F001FA05F240EA020001F00042E7
:1006B40021F0004110EBD37021FA04F642EB06015D
:1006C4005EEA430E08BF20EAD37070BDC4F10C0487
:1006D400C4F1200500FA04F320FA05F001FA04F24B
:1006E40040EA020001F0004110EBD37041F1000137
:1006F4005EEA430E08BF20EAD37070BDC4F1200542
:1007040000FA05F24EEA020E20FA04F301FA05F2A9
:1007140043EA020321FA04F001F0004121FA04F251
:1007240020EA020000EBD3705EEA430E08BF20EA21
:10073400D37070BD94F0000F0FD101F0004640005B
:1007440041EB010111F4801F08BF013CF7D041EADD
:10075400060195F0000F18BF704703F000465200E1
:1007640043EB030313F4801F08BF013DF7D043EAB2
:100774000603704794EA0C0F0CEA135518BF95EA68
:100784000C0F0CD050EA410618BF52EA4306D1D1EF
:1007940081EA030101F000414FF0000070BD50EA0E
:1007A400410606BF1046194652EA430619D094EA98
:1007B4000C0F02D150EA013613D195EA0C0F05D182
:1007C40052EA03361CBF104619460AD181EA0301D6
:1007D40001F0004141F0FE4141F470014FF000008E
:1007E40070BD41F0FE4141F4780170BD70B54FF029
:1007F400FF0C4CF4E06C1CEA11541DBF1CEA1355A9
:1008040094EA0C0F95EA0C0F00F0A7F8A4EB05048A
:1008140081EA030E52EA03354FEA013100F0888081
:100824004FEA03334FF0805545EA131343EA12634A
:100834004FEA022245EA111545EA10654FEA0026FF
:100844000EF000419D4208BF964244F1FD0404F5B8
:10085400407402D25B084FEA3202B61A65EB030514
:100864005B084FEA32024FF480104FF4002CB6EBD1
:10087400020E75EB030E22BFB61A754640EA0C0051
:100884005B084FEA3202B6EB020E75EB030E22BF91
:10089400B61A754640EA5C005B084FEA3202B6EBD2
:1008A400020E75EB030E22BFB61A754640EA9C0091
:1008B4005B084FEA3202B6EB020E75EB030E22BF61
:1008C400B61A754640EADC0055EA060E18D04FEA1F
:1008D400051545EA16754FEA06164FEAC30343EABF
:1008E40052734FEAC2025FEA1C1CC0D111F4801F8C
:1008F4000BD141EA00014FF000004FF0004CB6E785
:1009040011F4801F04BF01430020B4F1FD0C88BF23
:10091400BCF5E06F3FF6AFAEB5EB030C04BFB6EB2E
:10092400020C5FEA500C50F1000041EB045170BD21
:100934000EF0004E4EEA113114EB5C04C2BFD4EB4E
:100944000C0541EA045170BD41F480114FF0000ED2
:10095400013C90E645EA060E8DE60CEA135594EA4E
:100964000C0F08BF95EA0C0F3FF43BAF94EA0C0F51
:100974000AD150EA01347FF434AF95EA0C0F7FF4C6
:1009840025AF104619462CE795EA0C0F06D152EA1A
:1009940003353FF4FDAE1046194622E750EA4106FE
:1009A40018BF52EA43067FF4C5AE50EA41047FF40F
:1009B4000DAF52EA43057FF4EBAE12E74FF0FF3C74
:1009C40006E000BF4FF0010C02E000BF4FF0010C45
:1009D4004DF804CD4FEA410C7FEA6C5C4FEA430CBE
:1009E40018BF7FEA6C5C1BD001B050EA410C0CBF0D
:1009F40052EA430C91EA030F02BF90EA020F00206F
:100A0400704710F1000F91EA030F58BF994208BFD5
:100A140090422CBFD8176FEAE37040F00100704792
:100A24004FEA410C7FEA6C5C02D150EA013C07D1E9
:100A34004FEA430C7FEA6C5CD6D152EA033CD3D034
:100A44005DF8040B704700BF8446104662468C462E
:100A54001946634600E000BF01B5FFF7B7FF002861
:100A640048BF10F1000F01BD4DF808EDFFF7F4FF8A
:100A74000CBF012000205DF808FB00BF4DF808ED15
:100A8400FFF7EAFF34BF012000205DF808FB00BF38
:100A94004DF808EDFFF7E0FF94BF012000205DF85A
:100AA40008FB00BF4DF808EDFFF7CEFF94BF01200F
:100AB40000205DF808FB00BF4DF808EDFFF7C4FF08
:100AC40034BF012000205DF808FB00BF4FEA41025B
:100AD40012F5001215D211D56FF47873B3EB62528C
:100AE40012D94FEAC12343F0004343EA505311F0B3
:100AF400004F23FA02F018BF404270474FF0000045
:100B0400704750EA013005D111F0004008BF6FF082
:100B1400004070474FF00000704700BF72B6FEE718
:100B240000B591B02822002106A801F069FD002338
:100B340001930293039304930593012206924FF4C5
:100B4400803307930A9202220D920E934FF4E0131E
:100B54000F9306A800F078FA80B90F2301930221BD
:100B64000291002303934FF480620492059301A839
:100B740000F0AAFC20B911B05DF804FBFFF7CEFF2A
:100B8400FFF7CCFF08B500F011FAFFF7C9FF01F039
:100B940041FC01F08FFC01F011FBFEE7FEE7FEE7EC
:100BA400FEE7FEE7FEE770477047704708B500F0C0
:100BB4000FFA08BD82B00E4B9A6942F001029A61A5
:100BC4009A6902F001020092009ADA6942F08052B6
:100BD400DA61DB6903F080530193019B054A536892
:100BE40023F0E06343F00073536002B0704700BF2A
:100BF40000100240000001402DE9F04782B0054694
:100C0400884617461E4600F0EFF90A9B1B1A03EBB1
:100C1400060900F0E9F982462B4B1B68C3F3CB337A
:100C240009FB03F301932B689C6838EA04030CBFA7
:100C34004FF0010C4FF0000CBC4540D0B6F1FF3F23
:100C4400F1D000F0D1F9A0EB0A0048450AD2B9F17D
:100C5400000F07D0019A02B14A46019B013B019360
:100C64009146E0E72A68536823F0E00353606B6819
:100C7400B3F5827F0BD0AB6AB3F5005F14D00123C8
:100C840085F85130002385F85030032018E0AB6814
:100C9400B3F5004F02D0B3F5806FECD12A68136826
:100CA40023F040031360E6E72A68136823F4005333
:100CB40013602A68136843F400531360DFE70020CD
:100CC40002B0BDE8F08700BF0800002010B582B074
:100CD40004460B46009200228021FFF78DFF08B9DD
:100CE40002B010BD636D43F0200363650320F7E792
:100CF400002856D010B50446436A33B94368B3F5A7
:100D0400827F05D00023C36102E0002303614361B5
:100D14000023A36294F85130002B3CD0022384F8C2
:100D240051302268136823F040031360636803F4AE
:100D34008273A26802F404421343E26802F400627C
:100D44001343226902F002021343626902F00102B2
:100D54001343A26902F400721343E26902F03802F9
:100D64001343226A02F080021343A26A02F400527F
:100D7400216813430B60638B226803F00403536000
:100D84002268D36923F40063D361002060650123E2
:100D940084F8513010BD84F85030204601F0ACFB8B
:100DA400BCE7012070472DE9F04383B01D4690F85D
:100DB4005030012B00F0D18004468846914601232F
:100DC40080F8503000F010F9074694F85160F6B2FC
:100DD400012E40F0AF80B8F1000F00F0AC80B9F103
:100DE400000F00F0A880032384F8513000236365CA
:100DF400C4F83080A4F83490A4F83690A363A38791
:100E0400E38763642364A368B3F5004F1ED02368AB
:100E14001A6812F0400F03D11A6842F040021A60B7
:100E2400E368B3F5006F1CD0636813B1B9F1010F27
:100E340052D1226B236812781A73236B0133236314
:100E4400E38E9BB2013B9BB2E38645E022681368C4
:100E540023F0400313602268136843F48043136053
:100E6400D5E7636813B1B9F1010F16D1226B23687A
:100E74001288DA60236B02332363E38E9BB2013B57
:100E84009BB2E38609E000F0AFF8C01BA84202D38E
:100E9400B5F1FF3F59D1002D59D0E38E9BB2002B01
:100EA40033D023689A6812F0020FECD0226B1288B8
:100EB400DA60236B02332363E38E9BB2013B9BB264
:100EC400E386EAE700F090F8C01BA84202D3B5F12C
:100ED400FF3F3ED1002D3ED0E38E9BB2ABB12368E1
:100EE4009A6812F0020FEDD0226B12781A73236BFA
:100EF40001332363B4F836C01FFA8CFC0CF1FF3CB9
:100F04001FFA8CFCA4F836C0E6E73A462946204688
:100F1400FFF7DCFE08B120236365A36833B90193AE
:100F24002368DA6801929B680193019B636D13B98E
:100F3400002600E00226012384F85130002384F8BF
:100F44005030304603B0BDE8F0830326F3E70326B0
:100F5400F1E70326EFE70326EDE70226F1E70000B9
:100F640010B504460E4B18784FF47A73B3FBF0F3C4
:100F74000C4A1068B0FBF3F000F0CCFC68B90F2CFD
:100F840001D901200AE0002221464FF0FF3000F091
:100F940089FC054B1C60002000E0012010BD00BF4F
:100FA40000000020080000200400002008B5074AC3
:100FB400136843F010031360032000F061FC0F205A
:100FC400FFF7CEFFFFF7F6FD002008BD002002402A
:100FD400034A1168034B1B780B441360704700BF2E
:100FE4003800002000000020014B1868704700BF43
:100FF4003800002038B50446FFF7F6FF0546B4F183
:10100400FF3F02D0044B1B781C44FFF7EDFF401B4D
:10101400A042FAD338BD00BF0000002082B0084BC4
:101024001B68084AA2FB03235B0A00FB03F301933A
:1010340000BF019B5A1E0192002BF9D102B07047E8
:1010440008000020D34D6210002800F0F18170B533
:1010540082B00446036813F0010F2CD0994B5B68EF
:1010640003F00C03042B1DD0964B5B6803F00C03B8
:10107400082B12D06368B3F5803F41D0002B55D1C3
:1010840003F1804303F504331A6822F480321A60B2
:101094001A6822F480221A6037E08A4B5B6813F4E2
:1010A400803FE7D0874B1B6813F4003F03D063688D
:1010B400002B00F0BF81236813F0020F75D0814B21
:1010C4005B6813F00C0F5FD07E4B5B6803F00C037E
:1010D400082B54D02369002B00F08A807A4B01221C
:1010E4001A60FFF781FF0546764B1B6813F0020F69
:1010F40075D1FFF779FF401B0228F5D903209EE143
:10110400704A136843F480331360636843B3FFF792
:101114006BFF05466B4B1B6813F4003FCBD1FFF705
:1011240063FF401B6428F5D9032088E1B3F5A02FA1
:1011340009D0644B1A6822F480321A601A6822F4C7
:1011440080221A60E1E703F18043A3F53C331A6877
:1011540042F480221A601A6842F480321A60D4E79A
:10116400FFF742FF0546574B1B6813F4003FA2D01C
:10117400FFF73AFF401B6428F5D903205FE1514B88
:101184005B6813F4803FA5D14E4B1B6813F0020F2C
:1011940003D02369012B40F04F814A4A136823F09E
:1011A400F803616943EAC1031360236813F0080F6D
:1011B40033D0A369002B5CD0434B0122C3F88024B5
:1011C400FFF712FF05463F4B5B6A13F0020F21D174
:1011D400FFF70AFF401B0228F5D903202FE1394A03
:1011E400136823F0F803616943EAC1031360DCE781
:1011F400354B00221A60FFF7F7FE0546314B1B689A
:1012040013F0020FD1D0FFF7EFFE401B0228F5D9EF
:10121400032014E10120FFF701FF236813F0040FFA
:1012240000F09680274BDB6913F0805F34D1254BA7
:10123400DA6942F08052DA61DB6903F0805301938A
:10124400019B0125214B1B6813F4807F26D0E368A2
:10125400012B3DD0002B53D103F1804303F504331C
:101264001A6A22F001021A621A6A22F004021A624D
:1012740033E0154B0022C3F88024FFF7B5FE054682
:10128400104B5B6A13F0020FC7D0FFF7ADFE401B93
:101294000228F5D90320D2E00025D3E70B4A1368CE
:1012A40043F480731360FFF79FFE0646074B1B68E9
:1012B40013F4807FCBD1FFF797FE801B6428F5D908
:1012C4000320BCE0001002400000424200700040D5
:1012D4005F4A136A43F001031362E36833B3FFF711
:1012E40083FE06465A4B1B6A13F0020F2FD1FFF7F9
:1012F4007BFE801B41F288339842F3D903209EE0A1
:10130400052B09D0524B1A6A22F001021A621A6A9A
:1013140022F004021A62E0E74D4B1A6A42F004021A
:101324001A621A6A42F001021A62D6E7FFF75CFEFB
:101334000646474B1B6A13F0020F08D0FFF754FE12
:10134400801B41F288339842F3D9032077E0E5B952
:10135400E369002B72D03E4A526802F00C02082A5C
:1013640056D0022B17D03B4B00221A66FFF73CFEE7
:101374000446374B1B6813F0007F47D0FFF734FE59
:10138400001B0228F5D9032059E0314AD36923F020
:101394008053D361DCE72F4B00221A66FFF724FE4B
:1013A40005462B4B1B6813F0007F06D0FFF71CFE8D
:1013B400401B0228F5D9032041E0236AB3F5803F9E
:1013C4001AD023494B6823F47413226A606A0243D7
:1013D40013434B601F4B01221A66FFF705FE0446B8
:1013E4001B4B1B6813F0007F0ED1FFF7FDFD001BA4
:1013F4000228F5D9032022E0154A536823F4003368
:10140400A1680B435360DCE7002018E0002016E0DD
:10141400012B16D00E4B5B6803F48031226A914293
:1014240011D103F47013626A93420ED1002006E0D6
:1014340001207047012002E0012000E0002002B0FA
:1014440070BD0120FBE70120F9E70120F7E700BFA9
:10145400001002400000424286B0174B0FCB0DF142
:10146400180C0CE90F0040F20123ADF80430134BC3
:101474005B6803F00C02082A02D0114806B07047DA
:10148400C3F3834218326A4412F8100C13F4803FF9
:101494000DD00A4B5B68C3F3404318336B4413F815
:1014A400143C074A02FB00F0B0FBF3F0E6E7054BFF
:1014B40003FB00F0E2E700BF4C26000800100240E6
:1014C40000127A0000093D00002800F0A08070B5E9
:1014D4000D460446524B1B6803F007038B420BD2A4
:1014E4004F4A136823F007030B431360136803F098
:1014F40007038B4240F08D80236813F0020F17D04E
:1015040013F0040F04D0474A536843F4E063536074
:10151400236813F0080F04D0424A536843F460531D
:101524005360404A536823F0F003A1680B435360AF
:10153400236813F0010F31D06368012B20D0022BF4
:1015440025D0384A126812F0020F64D035494A682F
:1015540022F0030213434B60FFF746FD0646314B6E
:101564005B6803F00C036268B3EB820F16D0FFF7DD
:101574003BFD801B41F288339842F0D9032045E0BB
:10158400284A126812F4003FE0D101203EE0254AC7
:10159400126812F0007FD9D1012037E0204B1B687C
:1015A40003F00703AB420AD91D4A136823F007036B
:1015B4002B431360136803F00703AB422DD1236858
:1015C40013F0040F06D0174A536823F4E063E1686C
:1015D4000B435360236813F0080F07D0114A536874
:1015E40023F46053216943EAC1035360FFF734FFD6
:1015F4000C4B5B68C3F303130B4AD35CD8400B4B0F
:1016040018600B4B1868FFF7ABFC002070BD01207D
:1016140070470120FAE70120F8E70120F6E700BF50
:10162400002002400010024060260008080000204C
:101634000400002070B582B00024A446B0E0874DB9
:10164400AA4210D007D9864DAA420CD005F58035A0
:10165400AA4208D013E0A5F58015AA4203D005F5E7
:101664007025AA4207D18A68002A62D0012A5BD079
:101674004361082403E0A5F58015AA42F3D0BEF126
:10168400FF0F58D80646BEF1FF0F56D84FEA8C021A
:1016940033680F25954023EA050304FA02F2134345
:1016A40033604B6813F0805F78D06E4B9A6942F0D8
:1016B40001029A619B6903F001030193019B4FEAC4
:1016C4009C02951C684B53F825600CF003039D00A5
:1016D4000F23AB4026EA0306644B984233D003F54C
:1016E4008063984200F0988003F58063984200F08C
:1016F400958003F58063984200F0928003F580633F
:10170400984200F08F8003F58063984219D0062335
:101714001AE0CC68B3E7CC680434B0E7CC6808348A
:10172400ADE7CC680C34AAE703610824A7E70024DA
:10173400A5E70424A3E7061DA5E7ACF1080292007F
:10174400A6E7052300E00023AB4033430232464DB5
:1017540045F822304B6813F4803F65D0444A13683F
:1017640043EA0E0313604B6813F4003F62D0404A0F
:10177400536843EA0E0353604B6813F4801F5FD031
:101784003B4A936843EA0E0393604B6813F4001FCB
:101794005CD0374AD36843EA0E03D3600CF1010CE2
:1017A4000A6832FA0CF357D0012303FA0CF302EA65
:1017B400030E33EA0202F1D14A68122A3FF63FAF20
:1017C400122A3FF65CAF01A555F822F06B1600080B
:1017D400171700082117000833170008831600089C
:1017E4008316000883160008831600088316000871
:1017F4008316000883160008831600088316000861
:101804008316000883160008831600088316000850
:101814001B17000827170008012395E7022393E705
:10182400032391E704238FE7114A136823EA0E0385
:10183400136098E70E4A536823EA0E0353609BE74C
:101844000B4A936823EA0E0393609EE7084AD36821
:1018540023EA0E03D360A1E702B070BD000022109A
:101864000000311000100240000001400008014057
:10187400000401400AB10161704709040161704725
:10188400074AD36823F4E0631B041B0C000200F432
:10189400E060034343F0BF6343F40033D360704715
:1018A40000ED00E000B5194BDB68C3F30223C3F17C
:1018B400070CBCF1040F28BF4FF0040C03F1040E15
:1018C400BEF1060F18D9033B4FF0FF3E0EFA0CFC95
:1018D40021EA0C0199400EFA03F322EA03031943A7
:1018E40000280BDB0901C9B200F1604000F561403A
:1018F40080F800135DF804FB0023E5E700F00F0017
:101904000901C9B2024B1954F4E700BF00ED00E02D
:1019140014ED00E00138B0F1807F0BD24FF0E023EA
:101924005861054AF02182F82310002098610722AB
:101934001A6170470120704700ED00E0704703888A
:101944000A8802800B80704770B5064618B30024DD
:10195400114D0020002114E03046FEF7B3FD22466D
:101964002B46FEF743FF22462B46FEF75FFC002280
:101974000A4BFEF711FE02460B4620462946144642
:101984001D4622462B46FFF76FF80028E4D0204678
:101994002946FFF79BF870BD0000F03F0000E03FD0
:1019A40008B500224FF400410148FFF763FF08BD6A
:1019B4000008014010B5084C00224FF48051204625
:1019C400FFF758FF0A20FFF715FB01224FF480515F
:1019D4002046FFF74FFF10BD0008014000B583B05B
:1019E4008DF80700002201210648FFF743FF4FF05E
:1019F400FF3301220DF107010348FFF7D4F903B0C7
:101A04005DF804FB000C01403C00002070B5064664
:101A14000D46012211460B48FFF72CFF0FE02C4620
:101A2400B5F5004F28BF4FF40044A4B24FF0FF3384
:101A3400224631460448FFF7B6F926442D1B002DF3
:101A4400EDD170BD000C01403C000020F0B583B026
:101A540007460D4616461C462A20FFF7BFFF3B0AE1
:101A64008DF804308DF80570330A8DF806308DF842
:101A7400076004210DEB0100FFF7C8FF2B20FFF7DF
:101A8400ADFF2B0A8DF804308DF80550230A8DF82C
:101A940006308DF8074004210DEB0100FFF7B6FF77
:101AA4002C20FFF79BFF03B0F0BD82B02DE9F04F6F
:101AB40083B093460D93BDF83C80BDF840709DF80B
:101AC40034502A1892B29DF835A00AEB01039BB258
:101AD400013B013A9BB292B2FFF7B8FF4FF0000905
:101AE4001DE03B0A8DF804308DF80570022101A831
:101AF400FFF78CFF0134A5420FD906FA04F313F45F
:101B0400004FEED04FEA18238DF804308DF805808D
:101B1400022101A8FFF77AFFECE709F10109CA45A0
:101B240008D9ABF120030AFB03930E9A32F8136031
:101B34000024E0E703B0BDE8F04F02B070470000B6
:101B440008B501224FF400410148FFF793FE08BD98
:101B54000008014030B585B0FFF722FFFFF72AFFE8
:101B64000120FFF73BFF4FF47A70FFF743FACB20D5
:101B7400FFF734FF744C94E8030000908DF80410D0
:101B840005216846FFF742FFCF20FFF727FFA36830
:101B9400ADF800301B0C8DF8023003216846FFF7C6
:101BA40035FFE820FFF71AFFE368ADF800301B0C9F
:101BB4008DF8023003216846FFF728FFEA20FFF77B
:101BC4000DFF0025ADF8005002216846FFF71EFF07
:101BD400ED20FFF703FF5D4B009304216846FFF7F8
:101BE40015FFF720FFF7FAFE20238DF800300121BE
:101BF4006846FFF70BFFC020FFF7F0FE23238DF8A4
:101C0400003001216846FFF701FFC120FFF7E6FE1F
:101C140010238DF8003001216846FFF7F7FEC52038
:101C2400FFF7DCFE42F63E03ADF8003002216846C1
:101C3400FFF7ECFEC720FFF7D1FE86238DF80030B6
:101C440001216846FFF7E2FE3620FFF7C7FE48236E
:101C54008DF8003001216846FFF7D8FE3A20FFF7DF
:101C6400BDFE55238DF8003001216846FFF7CEFEF6
:101C7400B120FFF7B3FE4FF4C053ADF8003002219A
:101C84006846FFF7C3FEB620FFF7A8FE304B1B687B
:101C9400ADF800301B0C8DF8023003216846FFF7C5
:101CA400B5FEF220FFF79AFE8DF800500121684638
:101CB400FFF7ACFE2620FFF791FE01258DF80050BA
:101CC40029466846FFF7A2FEE020FFF787FE214B76
:101CD400EC460FCBACE807002CF8023B1B0C8CF84D
:101CE40000300F216846FFF791FEE120FFF776FEF2
:101CF400EC46103494E80F00ACE807002CF8023BE3
:101D04001B0C8CF800300F216846FFF77FFE112072
:101D1400FFF764FE7820FFF76DF92920FFF75EFED8
:101D24003620FFF75BFEE8238DF80030294668462D
:101D3400FFF76CFEFFF704FF2A4602210648FFF76F
:101D440099FD05B030BD00BF2C2600086403128144
:101D5400383B00083C3B0008000C0140B0F5A07F74
:101D64001ED270B582B004460D461646EF2901D93D
:101D740002B070BDFFF714FE6B1C621C9BB292B2E2
:101D840029462046FFF762FE330A8DF804308DF8A9
:101D94000560022101A8FFF739FEFFF7D1FEE7E74E
:101DA40070472DE9F04F85B0BDF838400194804666
:101DB400A2EB000A8946A3EB010BBAF1000F0DDD7B
:101DC40001220292BBF1000F14DD01230393DA45D3
:101DD4001CDD564600252F462C461BE0BAF1000FA9
:101DE40005D0A0EB020A4FF0FF320292EAE7CDF8E9
:101DF40008A0E7E7BBF1000F05D0A1EB030B4FF000
:101E0400FF330393E3E7CDF80CB0E0E75E46E1E788
:101E14000134A4B2731C9C4213DC019A1FFA89F1A9
:101E24001FFA88F0FFF79AFF57445D44BE4202DA76
:101E3400BF1B029B9844AE42EADAAD1B039B994454
:101E4400E6E705B0BDE8F08F82B02DE9F04385B038
:101E540006460D4617460D93BDF83C90BDF84080EC
:101E6400FFF79EFD10E0013700260DE0CDF8088055
:101E7400CDF804900E9B00930D9B29463046FFF746
:101E840014FE3444A6B201373A7882B19DF8344046
:101E94003319B3F5A07FE9DB9DF835301D44ADB2AD
:101EA4002B44EF2B03DC202ADDD00026DEE7FFF7EE
:101EB40047FE05B0BDE8F04302B070472DE9F0419C
:101EC40082B0BDF82080B0F5A07F3ED204460F4614
:101ED40016461D46EF2938D88318B3F5A07F02DDD6
:101EE400C0F5A076B6B27B19F02B02DDC7F1F00580
:101EF400ADB2FFF755FD321992B2EB199BB2013B1B
:101F0400013A9BB292B239462046FFF79FFD4FEA51
:101F140018238DF804308DF80580012211460C48F1
:101F2400FFF7A8FC0CE04FF0FF33022201A9094897
:101F3400FEF739FF013CA4B2002CF4D1013DADB24F
:101F44000DB13446F8E7FFF7FBFD02B0BDE8F081C0
:101F5400000C01403C00002000B583B00090F02349
:101F64004FF4A07200210846FFF7A8FF03B05DF804
:101F740004FB2DE9F04F8BB0BDF85880ADF81E007E
:101F8400ADF81C10ADF81A20ADF818308AB29BB227
:101F94009A4232D8BDF81820BDF854309A4237D846
:101FA400BDF81C20BDF818309A423BD8BDF81C403F
:101FB400BDF854309C4240D0BDF81A20BDF81E70C4
:101FC400D11B0391BDF818A0AAEB0401BDF850B0D1
:101FD400ABEB0707A3EB0409ABEB020BA3EB0A0281
:101FE4000492534503D00AF1FF3A1FFA8AFA0025F6
:101FF4002E46CDF814B08B4660E006A907A8FFF77B
:102004009EFC0DF11A010DF11E00FFF798FCC1E7CB
:1020140006A915A8FFF793FC0DF11A0114A8FFF700
:102024008EFCBDE706A907A8FFF789FC0DF11A018C
:102034000DF11E00FFF783FCB8E7BDF81E30ADF8C4
:102044002430ADF82630BDF81A2093421AD9ADF8E1
:102054002620BDF85030BDF82620934217D2ADF8A3
:102064002630BDF82600BDF82420121A92B201329F
:10207400CDF80080012392B22146FFF71FFF0BB079
:10208400BDE8F08F9342E4D2ADF82420E1E7BDF837
:1020940024209342E5D9ADF82430E2E7BDF82600C8
:1020A400BDF82420121A92B20132CDF80080012327
:1020B40092B22146FFF702FF0134A4B2544518D866
:1020C40096FBFBF2BDF81E301A4492B2ADF82620FE
:1020D40095FBF9F10B449BB2ADF8243003990E44FF
:1020E4003D449A42DAD909A90DF12600FFF727FCED
:1020F400D4E7DDF814B0BDF81860A61B0BFB06F698
:10210400BDF81C50651B07FB05F5DDF810A00FE0BA
:10211400BDF82600BDF82420121A92B20132CDF87F
:102124000080012392B22146FFF7C8FE0134A4B215
:10213400BDF85430A342A2D396FBFAF2BDF81A308C
:102144001A4492B2ADF8262095FBF9F3BDF81E109F
:102154000B449BB2ADF824305E443D449A42D7D937
:1021640009A90DF12600FFF7EAFBD1E72DE9F043B9
:1021740083B00646884615461F4602F1FF394C4691
:102184000CE080B2A8EB040189B2321A3044009703
:102194000B4692B280B2FFF704FE013C6B42A342AD
:1021A40009DA05FB05F004FB1400FFF7CDFB8542BB
:1021B400E7DC4846E5E703B0BDE8F0832DE9F043EA
:1021C40085B0FFF7C7FC4FF62050FFF7C5FE4FF66A
:1021D400FF74009423234FF48C720F211420FFF713
:1021E4006DFE3220FEF706FF002600963223A02261
:1021F4000F211046FFF7D5FD7C4D029401966B68C4
:1022040000932B687A4A19210846FFF71DFE0294B1
:1022140001966B6800932B68764A1921A520FFF775
:1022240013FE3220FEF7E6FE00945F234FF48C7217
:1022340037211420FFF742FE009678234FF496725C
:1022440019461420FFF7ADFD00969623A0227821AD
:102254001046FFF7A6FD029401966B6800932B6865
:10226400654A3C216E20FFF7EFFD029401966B68EE
:1022740000932B68614A5A211820FFF7E5FD604F4F
:10228400029401967B6800933B685E4A7D21282076
:10229400FFF7DAFD029401967B6800933B685A4A83
:1022A4007D21C820FFF7D0FD23461C22B421A020A5
:1022B400FFF75CFF4FF01F08CDF80880C823019397
:1022C40091200090B4231A46A021FFF752FE234622
:1022D4001422B4216E20FFF749FFCDF80880C327EC
:1022E40001974FF06909CDF80090B4235C22A52131
:1022F4004846FFF73EFECDF808800197762000900F
:10230400B4234A46A521FFF734FE23461422B42100
:10231400D220FFF72BFFCDF808800197CA20009048
:10232400B423D722A521FFF724FECDF80880019716
:10233400D7200090B423E422A521FFF71AFE2346F8
:102344001122D9217E20FFF711FF029401966B68B8
:1023540000932B682D4AD2217920FFF775FD23467F
:102364001122D921C220FFF701FF029401966B6864
:1023740000932B68264AD221BE20FFF765FD47F65D
:102384007C531C22CD211E20FFF7F0FE47F67C5320
:102394001C22CD214FF49170FFF7E8FE0094142322
:1023A4001922394640F21310FFF788FD0294DC2508
:1023B40001954FF496700090CD234FF49B72BE218B
:1023C400FFF7D7FD00941423192239461846FFF766
:1023D40075FD0294019514200090CD230A22BE219C
:1023E400FFF7C7FD05B0BDE8F08300BF0C00002077
:1023F4004C3B00085C3B0008F43B0008003C000830
:10240400140000201C3C00082C3C0008383C000848
:102414003C3C00082DE9F04188B000240494059464
:1024240006940794204B9A6942F020029A619A69B3
:1024340002F020020192019A9A6942F004029A6120
:102444009A6902F004020292029A9A6942F008021E
:102454009A619B6903F008030393039BDFF84C80A4
:10246400224603214046FFF705FA114D22464FF458
:1024740019412846FFF7FEF9032304930127059722
:1024840006940226079604A94046FFF7D3F84FF4B2
:102494001943049305970694079604A92846FFF761
:1024A400C9F808B0BDE8F08100100240000C0140FA
:1024B4000008014008B50E480E4B03604FF48273C8
:1024C400436000238360C360036143614FF400727F
:1024D40082610822C2610362436283620A23C36287
:1024E400FEF706FC00B908BDFEF718FBFBE700BFCA
:1024F4003C0000200030014010B586B00023029358
:102504000393049305930268164B9A4201D006B0D4
:1025140010BD03F560439A6942F480529A619A6946
:1025240002F480520092009A9A6942F004029A617D
:102534009B6903F004030193019BA02302930223EC
:10254400039303230593084C02A92046FFF772F86E
:102554004023029300230393049302A92046FFF728
:1025640069F8D4E700300140000801400C480D49E7
:102574000D4A002302E0D458C4500433C4188C42DA
:10258400F9D30A4A0A4C002301E013600432A24240
:10259400FBD3FFF7D3F900F00FF8FEF7F3FA704717
:1025A400000000201C000020483C00081C00002003
:1025B40094000020FEE7000070B500260C4D0D4C81
:1025C400641BA410A64209D100F022F800260A4D8B
:1025D4000A4C641BA410A64205D170BD55F8043BF7
:1025E40098470136EEE755F8043B98470136F2E781
:1025F400403C0008403C0008403C0008443C0008C3
:1026040003460244934200D1704703F8011BF9E7E3
:10261400F8B500BFF8BC08BC9E467047F8B500BFCB
:08262400F8BC08BC9E4670479B
:10262C00392C00340200000000C130008500780015
:10263C00000E1403110731C148080F0C31360F007E
:10264C0002030405060708090A0B0C0D0E0F1010E7
:10265C000000000000000000000000000102030464
:10266C000607080900000000000000000000000040
:10267C00000000000000000000000000000000004E
:10268C0000000000000000000000000C000C000C1A
:10269C00000C000C000C000C000C000C000C000CCE
:1026AC000000000C000C0000000000000000001BEB
:1026BC00001B001B001B001B0000000000000000A2
:1026CC0000000000000000000000000000000000FE
:1026DC0000008019801980198019C07FC07F801973
:1026EC000033C07FC07F0033003300330033000061
:1026FC00000000000000001E003F80758065007423
:10270C00003C001E00078005806580658075003FD9
:10271C00001E0004000400000000007000D840D827
:10272C00C0D880D900730006000C801BC036C06670
:10273C00C046C00680030000000000000000001E20
:10274C00003F003300330033001E000CC03CC06659
:10275C00806380618063C03E801C0000000000002C
:10276C000000000C000C000C000C000C0000000021
:10277C00000000000000000000000000000000004D
:10278C0000000000800000010003000600060004A9
:10279C00000C000C000C000C000C000C00040006DB
:1027AC000006000300018000002000100018000C3F
:1027BC00000C0004000600060006000600060006D9
:1027CC000004000C000C0018001000200000000C8D
:1027DC00002D003F001E0033000000000000000030
:1027EC0000000000000000000000000000000000DD
:1027FC00000000000000000C000C000C000CC0FFDE
:10280C00C0FF000C000C000C000C000000000000CD
:10281C0000000000000000000000000000000000AC
:10282C000000000000000000000000000000000C90
:10283C00000C000400040008000000000000000070
:10284C0000000000000000000000001E001E000040
:10285C00000000000000000000000000000000006C
:10286C00000000000000000000000000000000005C
:10287C00000000000000000C000C00000000000034
:10288C00000000030003000300060006000600061B
:10289C00000C000C000C000C0018001800180000B4
:1028AC00000000000000001E003F003380618061CA
:1028BC008061806D806D8061806180610033003F3C
:1028CC00001E00000000000000000006000E001EAC
:1028DC00003600260006000600060006000600066C
:1028EC000006000600060000000000000000001EAC
:1028FC00003F807380618061800100030006000C42
:10290C00001800300060807F807F00000000000015
:10291C000000001C003E006300630003000E000E6C
:10292C0000038001800180618073003F001E000065
:10293C000000000000000006000E000E001E001E2D
:10294C000016003600360066807F807F0006000689
:10295C0000060000000000000000007F007F006007
:10296C0000600060006E007F8063800180018061E8
:10297C008073003F001E0000000000000000001EDD
:10298C00003F803380610060006E007F8073806147
:10299C00806180618033003F001E00000000000059
:1029AC000000807F807F800100030003000600068A
:1029BC00000C000C000C0008001800180018000097
:1029CC00000000000000001E003F806380618061F9
:1029DC000021001E003F8061806180618061003FAA
:1029EC00001E0000000000000000001E003F0073ED
:1029FC008061806180618073803F801D8001806177
:102A0C000073003F001E00000000000000000000EA
:102A1C00000000000000000C000C00000000000092
:102A2C00000000000000000C000C00000000000082
:102A3C00000000000000000000000000000C000C72
:102A4C0000000000000000000000000C000C00045E
:102A5C00000400080000000000000000800080035B
:102A6C00000E003800600038000E8003800000006B
:102A7C00000000000000000000000000000000004A
:102A8C000000807F807F00000000807F807F00003E
:102A9C00000000000000000000000000000000002A
:102AAC000000000000400070001C000780010007BF
:102ABC00001C00700040000000000000000000003E
:102ACC000000001F803FC071C060C000C0018003C7
:102ADC000007000E000C000C0000000C000C0000A5
:102AEC00000000000000001E003F803180718063F8
:102AFC00806F806D806D806F806700600032003E5B
:102B0C00001C0000000000000000000E000E001B66
:102B1C00001B001B001B80318031803F803F8031C7
:102B2C00C060C060C0600000000000000000007CBD
:102B3C00007E0063006300630063007E007E006320
:102B4C00806180618063007F007E000000000000D7
:102B5C000000001E003F803180610060006000605A
:102B6C0000600060006080618031003F001E00004A
:102B7C00000000000000007C007F00638063806127
:102B8C008061806180618061806100630063007E90
:102B9C00007C0000000000000000807F807F00604F
:102BAC00006000600060007F007F006000600060DB
:102BBC000060807F807F0000000000000000807FAC
:102BCC00807F0060006000600060007F007F00601C
:102BDC000060006000600060006000000000000009
:102BEC000000001E003F80318061006000600060CA
:102BFC0080638063806180618031803F001E0000B3
:102C0C000000000000008061806180618061806153
:102C1C008061807F807F8061806180618061806164
:102C2C0080610000000000000000003F003F000C2D
:102C3C00000C000C000C000C000C000C000C000C28
:102C4C00000C003F003F000000000000000080016D
:102C5C008001800180018001800180018001800160
:102C6C00806180618073003F001E00000000000046
:102C7C000000C0608061006300660066006C007834
:102C8C00007C00660066006380618061C0600000AB
:102C9C000000000000000060006000600060006048
:102CAC000060006000600060006000600060807F79
:102CBC00807F0000000000000000C071C071C07B6C
:102CCC00C07AC06AC06AC06EC064C060C060C060B8
:102CDC00C060C060C0600000000000000000807197
:102CEC008071807980798079806D806D806D806550
:102CFC00806780678067806380630000000000004D
:102D0C000000001E003F00338061806180618061A3
:102D1C0080618061806180610033003F001E000093
:102D2C00000000000000007E007F806380618061F5
:102D3C0080618063007F007E006000600060006046
:102D4C0000600000000000000000001E003F003387
:102D5C008061806180618061806180618065806755
:102D6C000033803F401E0000000000000000007E89
:102D7C00007F8063806180618063007F007E0066DD
:102D8C000063006380618061C0600000000000008F
:102D9C000000000E001F8031803100300038001E12
:102DAC0000078003806180618031003F001E0000BD
:102DBC00000000000000C0FFC0FF000C000C000C65
:102DCC00000C000C000C000C000C000C000C000C97
:102DDC00000C000000000000000080618061806138
:102DEC0080618061806180618061806180618061CF
:102DFC008073003F001E0000000000000000C06057
:102E0C00C060C060803180318031001B001B001B12
:102E1C00001B000E000E000E00040000000000005D
:102E2C000000C0C0C0C0C0C0C0C0C0C0C0CC804CBE
:102E3C00804C805E80528052807380618061000083
:102E4C00000000000000C0C0806080610033003BC7
:102E5C00001E000C000C001E001F003B80718061E6
:102E6C00C0C00000000000000000C0C08061806194
:102E7C0000330033001E001E000C000C000C000C74
:102E8C00000C000C000C0000000000000000803F53
:102E9C00803F8001000300030006000C000C0018AA
:102EAC00001800300060807F807F00000000000070
:102EBC00000F000F000C000C000C000C000C000CA0
:102ECC00000C000C000C000C000C000C000C000C96
:102EDC00000F000F0000001800180018000C000C68
:102EEC00000C000C000600060006000600030003A0
:102EFC000003000000000000001E001E000600067B
:102F0C000006000600060006000600060006000685
:102F1C000006000600060006001E001E0000000C45
:102F2C00000C001E00120033003380618061000031
:102F3C000000000000000000000000000000000085
:102F4C000000000000000000000000000000000075
:102F5C000000000000000000000000000000000065
:102F6C00E0FF0000000000380018000C000000001A
:102F7C000000000000000000000000000000000045
:102F8C000000000000000000000000000000000035
:102F9C000000001F803F80618001801F803F8061A6
:102FAC008063807FC03800000000000000000060DB
:102FBC00006000600060006E007F80738061806143
:102FCC00806180618073007F006E00000000000053
:102FDC0000000000000000000000001E003F807395
:102FEC0080610060006080618073003F001E000003
:102FFC000000000000008001800180018001801D24
:10300C00803F807380618061806180618073803FCC
:10301C00801D000000000000000000000000000007
:10302C000000001E003F00738061807F807F006085
:10303C008071003F001E0000000000000000C0076F
:10304C00C00F000C000C807F807F000C000C000C6B
:10305C00000C000C000C000C000C00000000000028
:10306C000000000000000000801D803F8073806124
:10307C008061806180618073803F801D80018063EE
:10308C00007F003E00000060006000600060006F88
:10309C00807F8071806180618061806180618061EE
:1030AC008061000000000000000000060006000027
:1030BC000000003E003E000600060006000600066A
:1030CC0000060006000600000000000000060006D6
:1030DC0000000000003E003E000600060006000650
:1030EC00000600060006000600060046007E003CB6
:1030FC00000000600060006000608061006300669A
:10310C00006C007C0076006300638061C06000008E
:10311C00000000000000003E003E00060006000615
:10312C000006000600060006000600060006000663
:10313C00000600000000000000000000000000007D
:10314C00000080DDC0FFC0CEC0CCC0CCC0CCC0CC99
:10315C00C0CCC0CCC0CC00000000000000000000BF
:10316C00000000000000006F807F80718061806132
:10317C0080618061806180618061000000000000DE
:10318C0000000000000000000000001E003F8073E3
:10319C0080618061806180618073003F001E00004F
:1031AC00000000000000000000000000006E007F26
:1031BC00807380618061806180618073007F006EAC
:1031CC000060006000600060000000000000000073
:1031DC00801D803F8073806180618061806180731D
:1031EC00803F801D80018001800180010000000073
:1031FC000000000000000067803F00390030003004
:10320C0000300030003000300030000000000000C2
:10321C0000000000000000000000001E803F8061E4
:10322C000060007F803F80018061007F001E0000F5
:10323C000000000000000000000800180018007FCB
:10324C00007F001800180018001800180018801FC4
:10325C00800F0000000000000000000000000000D3
:10326C00000080618061806180618061806180612B
:10327C008063807F803D00000000000000000000A3
:10328C00000000000000C060803180318031001BE4
:10329C00001B001B000E000E0006000000000000CA
:1032AC000000000000000000000080DD80DD80DDFB
:1032BC0000550055005500770077002200220000D1
:1032CC000000000000000000000000000000806111
:1032DC0000330033001E000C000C001E00330033C2
:1032EC0080610000000000000000000000000000F1
:1032FC0080618061803100330033001B001B001B98
:10330C00000E000E000E001C007C0070000000007F
:10331C00000000000000C07FC07F80010003000699
:10332C00000C00180030C07FC07F000000000000BF
:10333C008003800700060006000600060006000E4B
:10334C00001C001C000E000600060006000600060D
:10335C008007800300060006000600060006000633
:10336C000006000600060006000600060006000621
:10337C0000060006000600060038003C000C000C9D
:10338C00000C000C000C000E00070007000E000CD7
:10339C00000C000C000C000C003C0038000000007D
:1033AC00000000000000000000008038807F004713
:1033BC000000000000000000000000000000000001
:1033CC0000000000000000000000000000000000F1
:1033DC000000000000100010001000100010001081
:1033EC000000001000000000002800280028000049
:1033FC000000000000000000000000000024002479
:10340C00007C00240048007C0048004800000000BC
:10341C000038005400500038001400540054003898
:10342C000010000000200054005800300028005408
:10343C0000140008000000000010002800280010F4
:10344C000034004800480034000000000010001058
:10345C000010000000000000000000000000000050
:10346C000008001000200020002000200020002078
:10347C0000100008002000100008000800080008D8
:10348C000008000800100020001000380010002870
:10349C000000000000000000000000000000000020
:1034AC0000100010007C0010001000000000000054
:1034BC0000000000000000000000000000000010F0
:1034CC000010001000000000000000000000003898
:1034DC0000000000000000000000000000000000E0
:1034EC0000000000000000100000000000080008B0
:1034FC000010001000100010002000200000000040
:10350C000038004400440054004400440044003897
:10351C0000000000001000300050001000100010DF
:10352C0000100010000000000038004400440004AB
:10353C00000800100020007C00000000003800444F
:10354C0000040018000400040044003800000000CF
:10355C0000080018002800280048007C000800081B
:10356C0000000000007C00400040007800040004D3
:10357C00004400380000000000380044004000788F
:10358C00004400440044003800000000007C0004AB
:10359C000008001000100020002000200000000097
:1035AC000038004400440038004400440044003813
:1035BC00000000000038004400440044003C0004BB
:1035CC000044003800000000000000000010000063
:1035DC0000000000000000100000000000000000CF
:1035EC00000000100000000000000010001000108F
:1035FC0000000000000C003000400030000C000007
:10360C0000000000000000000000007C0000007CB6
:10361C000000000000000000000000000060001826
:10362C000004001800600000000000000038004496
:10363C000004000800100010000000100000000042
:10364C0000380044004C0054005C0040004000383E
:10365C000000000000100028002800280028007C32
:10366C00004400440000000000780044004400784E
:10367C00004400440044007800000000003800447E
:10368C0000400040004000400044003800000000B2
:10369C00007000480044004400440044004800709E
:1036AC0000000000007C00400040007C0040004016
:1036BC000040007C00000000007C004000400078CE
:1036CC000040004000400040000000000038004472
:1036DC0000400040005C0044004400380000000042
:1036EC00004400440044007C004400440044004476
:1036FC000000000000380010001000100010001036
:10370C000010003800000000000400040004000455
:10371C00000400040044003800000000004400488D
:10372C0000500060005000480048004400000000B9
:10373C000040004000400040004000400040007C41
:10374C00000000000044006C006C00540044004475
:10375C000044004400000000004400640064005475
:10376C000054004C004C00440000000000380044A1
:10377C0000440044004400440044003800000000B1
:10378C0000780044004400440078004000400040B1
:10379C000000000000380044004400440044004491
:1037AC000054003800040000007800440044004439
:1037BC000078004800480044000000000038004435
:1037CC0000400030000800040044003800000000F5
:1037DC00007C0010001000100010001000100010F1
:1037EC000000000000440044004400440044004435
:1037FC00004400380000000000440044004400284D
:10380C0000280028001000100000000000440044B4
:10381C00005400540054006C0028002800000000E4
:10382C000044002800280010001000280028004444
:10383C000000000000440044002800280010001084
:10384C000010001000000000007C000400080010B4
:10385C00001000200040007C000000000018001048
:10386C0000100010001000100010001000100018C4
:10387C0000200020001000100010001000080008AC
:10388C0000000000003000100010001000100010AC
:10389C000010001000100030001000280028004418
:1038AC00000000000000000000000000000000000C
:1038BC00000000000000000000000000000000FEFE
:1038CC0000200010000000000000000000000000BC
:1038DC00000000000000000000380044003C0044E0
:1038EC00004C003400000000004000400058006410
:1038FC000044004400640058000000000000000078
:10390C000038004400400040004400380000000033
:10391C00000400040034004C00440044004C00340B
:10392C00000000000000000000380044007C004053
:10393C000044003800000000000C0010007C001057
:10394C00001000100010001000000000000000002B
:10395C000034004C00440044004C00340004007857
:10396C0000400040005800640044004400440044FF
:10397C00000000000010000000700010001000108B
:10398C00001000100000000000100000007000107B
:10399C000010001000100010001000E0004000406B
:1039AC000048005000600050004800440000000037
:1039BC00007000100010001000100010001000101B
:1039CC000000000000000000007800540054005477
:1039DC000054005400000000000000000058006477
:1039EC0000440044004400440000000000000000BB
:1039FC00003800440044004400440038000000003B
:103A0C0000000000005800640044004400640058AA
:103A1C0000400040000000000034004C0044004412
:103A2C00004C003400040004000000000058006446
:103A3C00004000400040004000000000000000007A
:103A4C00003800440030000800440038000000003A
:103A5C00002000200078002000200020002000180A
:103A6C00000000000000000000440044004400443A
:103A7C00004C003400000000000000000044004432
:103A8C0000280028002800100000000000000000A2
:103A9C00005400540054006C002800280000000062
:103AAC000000000000440028001000100028004412
:103ABC000000000000000000004400440028002822
:103ACC00001000100010006000000000007C0008D6
:103ADC00001000200040007C0000000000180010C6
:103AEC000010001000200020001000100010001822
:103AFC00001000100010001000100010001000103A
:103B0C000010001000300010001000100008000819
:103B1C0000100010001000300000000000000074C5
:103B2C00004C00000000000000000000088227008C
:103B3C000F312B0C0E084EF1370710030E09000045
:103B4C0053696D5374617475733A20200000000042
:103B5C00426174746572793A203435250000000096
:103B6C004E6869702054696D0000000031303020BF
:103B7C002842504D29000000536F2062756F633A44
:103B8C000000000031303030302842756F6329005E
:103B9C0052756E2054696D65000000003132302082
:103BAC006D696E7574657300436F6F7264696E61D5
:103BBC00746573004B696E6820646F3A2020202076
:103BCC0000000000566920646F3A2020202000007D
:103BDC0053544152540000005041555345000000CD
:103BEC0053544F500000000054656E2062616920F0
:103BFC0068617400416D207468616D2062656E208F
:103C0C00656D2D536F6E54756E674D5450000000EA
:103C1C0054484F49204C554F4E472043484F49007C
:103C2C00414D204C554F4E47000000002D00000028
:043C3C002B00000059
:043C4000090200086D
:043C4400E50100088E
:103C480001000000100000000024F4000B12000026
:0C3C580070260008070A0000CC330008AA
:040000050800257159
:00000001FF
